:100000000C9428010C9459010C9459010C94590139
:100010000C9459010C9459010C9459010C945901F8
:100020000C9459010C9459010C9459010C945901E8
:100030000C9459010C9459010C9459010C945901D8
:100040000C9459010C9459010C9459010C945901C8
:100050000C9459010C9459010C9459010C94060309
:100060000C9459010C947A030C9450030C9459018C
:100070000C9459010C9459010C9459010C94590198
:100080000C9459010C9459010C9459010C94590188
:100090000C9459010C9459010C9459010C94590178
:1000A0000C9459010C9459010C9459010C94590168
:1000B0000C9459010C9459010C9459010C94590158
:1000C0000C9459010C9459010C9459010C94590148
:1000D0000C9459010C9459010C9459010C94590138
:1000E0000C9459010C9443050C941D050C94880143
:1000F0000C94AE040C9403060C9417050C94AB01FD
:100100000C9408050C940C050C9435050C94100502
:100110000C943E020C94B3040C9421050C944705F6
:100120000C9414050C9427050C94B9010C945B01F4
:100130000C9497010C94F1010C9439050C942F0543
:100140000C942B050C943D05000021002400270091
:100150002A002D00300033000101000004010701D6
:100160000A0100002200250028002B002E0031008B
:10017000340002010000050108010B010505050519
:10018000070508080808020202020A0A080804040F
:10019000040401010101010101010303030303033D
:1001A0000303040707070C0C0C0C0C0C0C0C0202CC
:1001B000020206060606060606060B0B0B0B0B0BC9
:1001C0000B0B010210202008081020401020408056
:1001D000020102010804020101020408102040800B
:1001E0008040201008040201800402018040201099
:1001F00008040201080402010102040810204080E2
:10020000010204081020408000000A0B02090C0DB6
:100210000E080703040100000000000000000000B9
:1002200000000000000000000000000000000000CE
:10023000000000001211100000000000000000008B
:1002400000000000000000000000000000000306A5
:1002500011241FBECFEFD1E2DEBFCDBF00E00CBF47
:1002600012E0A0E0B2E0E4E7FCE000E00BBF02C077
:1002700007900D92A231B107D9F722E0A2E1B2E0D6
:1002800001C01D92A43EB207E1F711E0C8E2D1E03F
:1002900000E006C021970109802FFE010E94300670
:1002A000C732D10780E00807A9F70E94B0030C9479
:1002B00038060C940000AF92BF92CF92DF92EF927B
:1002C000FF920F931F93CF93DF936C017B018B0100
:1002D000040F151FEB015E01AE18BF08C017D10750
:1002E00059F06991D601ED91FC910190F081E02DDA
:1002F000C6011995892B79F7C501DF91CF911F911F
:100300000F91FF90EF90DF90CF90BF90AF90089546
:10031000FC01538D448D252F30E0842F90E0821B0B
:10032000930B541710F0CF96089501970895FC0190
:10033000918D828D981761F0A28DAE0FBF2FB11DE8
:100340005D968C91928D9F5F9F73928F90E0089540
:100350008FEF9FEF0895FC01918D828D981731F0FA
:10036000828DE80FF11D858D90E008958FEF9FEF4E
:100370000895FC01918D228D892F90E0805C9F4F24
:10038000821B91098F73992708958CE292E00E9455
:10039000B90121E0892B09F420E0822F0895FC01A6
:1003A000A48DA80FB92FB11DA35ABF4F2C91848DD6
:1003B00090E001968F739927848FA689B7892C9333
:1003C000A089B1898C91837080648C93938D848D86
:1003D000981306C00288F389E02D80818F7D808389
:1003E0000895EF92FF920F931F93CF93DF93EC0149
:1003F00081E0888F9B8D8C8D98131AC0E889F989CC
:10040000808185FF15C09FB7F894EE89FF896083CE
:10041000E889F98980818370806480839FBF81E04F
:1004200090E0DF91CF911F910F91FF90EF90089591
:10043000F62E0B8D10E00F5F1F4F0F731127E02E6C
:100440008C8D8E110CC00FB607FCFACFE889F989A4
:10045000808185FFF5CFCE010E94CF01F1CFEB8DDA
:10046000EC0FFD2FF11DE35AFF4FF0829FB7F89478
:100470000B8FEA89FB8980818062CFCFCF93DF9396
:10048000EC01888D8823B9F0AA89BB89E889F989AC
:100490008C9185FD03C0808186FD0DC00FB607FCE1
:1004A000F7CF8C9185FFF2CF808185FFEDCFCE0114
:1004B0000E94CF01E9CFDF91CF91089580E090E0D5
:1004C000892B29F00E94C50181110E94000080E063
:1004D00090E0892B49F080E090E0892B29F00E9480
:1004E000000081110E94000080E090E0892B49F01B
:1004F00080E090E0892B29F00E94000081110E9489
:10050000000080E090E0892B49F080E090E0892BAA
:1005100029F00E94000081110C9400000895CF93EF
:10052000DF93A4E1B2E04FEF5FEF30E020E0281767
:100530003907B1F0ED91FD914E275F27E8E0F0E03B
:10054000EA01C170DD2756954795CD2B21F071E06A
:10055000472770EA5727319799F72F5F3F4FE7CF2B
:10056000A52FBB275527C9010196880F991F220F78
:10057000331F6130C9F4FC01EC5EFD4F81E0608106
:1005800071816A177B0709F080E02C5E3D4F91E096
:10059000F901208131812417350709F090E0892382
:1005A00090E0DF91CF9108952C5E3D4FF90151838A
:1005B00040838C5E9D4FFC01B183A08381E090E07D
:1005C000F0CFCF93DF93209116023091170220587D
:1005D0003F4F309317022093160290E09093190238
:1005E0008093180260E083E090E00E948F02C4E1F3
:1005F000D2E0688122968CE292E00E94F10182E0D2
:10060000CE31D807B1F7DF91CF9108951F920F92A5
:100610000FB60F9211242F933F938F939F93AF9315
:10062000BF938091E0029091E102A091E202B0912B
:10063000E3023091DF0223E0230F2D3758F50196B6
:10064000A11DB11D2093DF028093E0029093E1028F
:10065000A093E202B093E3028091DB029091DC026E
:10066000A091DD02B091DE020196A11DB11D809323
:10067000DB029093DC02A093DD02B093DE02BF9117
:10068000AF919F918F913F912F910F900FBE0F903F
:100690001F90189526E8230F0296A11DB11DD2CFF9
:1006A0001F920F920FB60F9211240BB60F922F9339
:1006B0003F934F935F936F937F938F939F93AF93EA
:1006C000BF93EF93FF938CE292E00E94CF01FF91E2
:1006D000EF91BF91AF919F918F917F916F915F91BA
:1006E0004F913F912F910F900BBE0F900FBE0F9027
:1006F0001F9018951F920F920FB60F9211240BB6F0
:100700000F922F938F939F93EF93FF93E0913C026F
:10071000F0913D028081E0914202F091430282FD1E
:100720001DC09081809145028F5F8F73209146029A
:10073000821741F0E0914502F0E0E45DFD4F958FB6
:1007400080934502FF91EF919F918F912F910F9090
:100750000BBE0F900FBE0F901F9018958081F2CFA7
:10076000789484B5826084BD84B5816084BD85B58C
:10077000826085BD85B5816085BD80916E00816098
:1007800080936E001092810080918100826080933E
:100790008100809181008160809381008091800040
:1007A0008160809380008091B10084608093B1006B
:1007B0008091B00081608093B00080919100826050
:1007C000809391008091910081608093910080914D
:1007D00090008160809390008091A100826080935E
:1007E000A1008091A10081608093A1008091A00070
:1007F00081608093A000809121018260809321011B
:10080000809121018160809321018091200181608C
:100810008093200180917A00846080937A00809197
:100820007A00826080937A0080917A008160809360
:100830007A0080917A00806880937A001092C100DB
:10084000EAECF1E02491F4E82F2EF1E03F2EF101E3
:100850008491882399F090E0880F991FFC01E85B50
:10086000FE4FA591B491FC01EE59FE4F85919491F4
:100870008FB7F8949C91292B2C938FBFE0913C0269
:10088000F0913D0282E08083E0913802F0913902DC
:100890001082E0913A02F0913B028FEC808310923B
:1008A0004402E0914002F091410286E08083E091B1
:1008B0003E02F0913F02808180618083E0913E02A0
:1008C000F0913F02808188608083E0913E02F09148
:1008D0003F02808180688083E0913E02F0913F0278
:1008E00080818F7D808380ED97E0909313028093C9
:1008F0001202C1E0D0E059E0452E512C62E0662E94
:10090000712C78E0E72EF12CE0E1F2E08491EAEC42
:10091000F1E02491F1019491992309F433C08823E3
:1009200011F181508231F8F4E82FF0E08827E45685
:10093000FB4F8F4F0C94300610051405AE040805CC
:100940000C05B30417051D05210527052B052F05EB
:1009500035053905B3043D05430547058091800001
:100960008F7780938000E92FF0E0EE0FFF1FEE59A4
:10097000FE4FA591B4918FB7F8949C9120952923AF
:100980002C938FBF1092CA021092C9021092CC020F
:100990001092CB021092CE021092CD021092D00291
:1009A0001092CF02D093D202C093D102D093D4023E
:1009B000C093D302D093D602C093D502D093D8026D
:1009C000C093D702D093DA02C093D9028CE292E0AE
:1009D0000E94B901181619060CF0D5C004E112E006
:1009E0005801D12CC12C912C812C8CE292E00E94D8
:1009F000B901892B09F04FC0809112029091130226
:100A00008816990608F047C0FFEF8F1A9F0AEDCFAE
:100A1000809180008F7DA5CF80918000877FA1CFBE
:100A200084B58F7784BD9FCF84B58F7DFBCF8091B8
:100A3000B0008F778093B00096CF8091B0008F7D0B
:100A4000F9CF809190008F77809390008CCF809128
:100A500090008F7DF9CF80919000877FF5CF8091B6
:100A6000A0008F778093A0007ECF8091A0008F7D23
:100A7000F9CF8091A000877FF5CF809120018F77FB
:100A80008093200170CF809120018F7DF9CF8091DC
:100A90002001877FF5CF8CE292E00E94B901892B7B
:100AA00061F08CE292E00E949701F50181939193AD
:100AB0005F01FFEFCF1ADF0A96CF80911402909169
:100AC0001502019709F05FC061E0C60102970E941C
:100AD0008F02892B09F457C080911602909117025A
:100AE0008230910509F08BC020911A0230911B02CF
:100AF000293031050CF07FC040911E0250911F0239
:100B0000C201821B930B8417950708F474C0493007
:100B10005105E1F5E9EDF2E090E080E020E072912E
:100B20006291862B972B273011F0880F991F2F5F2A
:100B30002830A9F790931B0280931A02493051057F
:100B400009F052C08091D9029091DA027092190294
:100B50006092180290931D0280931C0297E0C92EA8
:100B600060E0EC2DE250FF0BCF010E948F02D12CF0
:100B7000F80160810E5F1F4F8CE292E00E94F1014C
:100B8000D394CD10F5CF0E945E02BECEB22E90E07F
:100B900080E0240F351F690161E0C61AD108AB2D32
:100BA000B0E0A217B307BCF4FD01EE0FFF1FE7533F
:100BB000FD4F608171817695762F662777956795D1
:100BC00071836083862B972BAC15BD0514F4969525
:100BD0008795B394E4CF9701241B350B02C09695FB
:100BE00087952A95E2F7A6CFD0931902C0931802F1
:100BF00086E0C82EB5CF82E00E94E102C4CF0F97F5
:100C000011F281E0F9CFECE2F2E01382128288EE79
:100C100093E0A0E0B0E084839583A683B78384E06B
:100C200092E09183808385EC90E09587848784ECC3
:100C300090E09787868780EC90E0918B808B81ECA9
:100C400090E0938B828B82EC90E0958B848B86EC8A
:100C500090E0978B868B118E128E138E148E0895D2
:100C6000EE0FFF1F881F8BBF0790F691E02D1994A0
:040C7000F894FFCF26
:100C740000000000F1015B0188013E02B901970107
:020C8400AB01C2
:00000001FF
